11111-22222-33333-44444Muffler       A-101231BP456xxxxxCM 003CHRTownCxxxxx2015xxxxxxxxxxxxxx23456xxxxxSABC COMPANY    005332010010111234 West Main Order Dept.                   Any Town       AL359949999921234 West Main Sched Dept.    Attn: Mary     Any Town      AL012349999931234 West Main Remit Dept.    Attn: Bob      Any Town     AL3599410004000001TUR00000010000022952020072520200910000002TUR00000020000015482020072620200903000003TUR00000010001023452020072820201012
22022-22222-33333-44444MufflerCOPY1  A-101231BP456xxxxxCM 003CHRTownCxxxxx2016xxxxxxxxxxxxxx23456xxxxxDXYZ DISTRIBUTOR005332010010111234 West Main Order Dept.                   Any Town       AL359949999921234 West Main Sched Dept.    Attn: Mary     Any Town      AL012349999931234 West Main Remit Dept.    Attn: Bob      Any Town     AL3599410004000001TUR00000010000022952020072520200910000002TUR00000020000015482020072620200903000003TUR00000010001023452020072820201012
33033-22222-33333-44444MufflerCOPY1  A-101231BP456xxxxxCM 003CHRTownCxxxxx2017xxxxxxxxxxxxxx23456xxxxxDXYZ DISTRI BUTOR005332010010111234 West Main Order Dept.                   Any Town      AL359949999921234 West Main Sched Dept.    Attn: Mary     Any Town      AL012349999931234 West Main Remit Dept.    Attn: Bob      Any Town     AL3599410004000001TUR00000010000022952020072520200910000002TUR00000020000015482020072620200903000003TUR00000010001023452020072820201012
44444-22222-33333-44444Muffler       A-101231BP456xxxxxCM 003CHRTownCxxxxx2018xxxxxxxxxxxxxx23456xxxxxSAPPL INC       005332010010111234 West Main Order Dept.                   Any Town       AL359949999921234 West Main Sched Dept.    Attn: Mary     Any Town      AL012349999931234 West Main Remit Dept.    Attn: Bob      Any Town     AL3599410004000001TUR00000010000022952020072520200910000002TUR00000020000015482020072620200903000003TUR00000010001023452020072820201013
55555-22222-33333-44444Muffler       A-101231BP456xxxxxCM 003CHRTownCxxxxx2019xxxxxxxxxxxxxx23456xxxxxSMS             005332010010111234 West Main Order Dept.                   Any Town       AL359949999921234 West Main Sched Dept.    Attn: Mary     Any Town      AL012349999931234 West Main Remit Dept.    Attn: Bob      Any Town     AL3599410004000001TUR00000010000022952020072520200910000002TUR00000020000015482020072620200903000003TUR00000010001023452020072820201014